{
  "_format": "hh-sol-artifact-1",
  "contractName": "Genesis",
  "sourceName": "src/contracts/Genesis.sol",
  "abi": [
    {
      "inputs": [
        {
          "internalType": "uint256",
          "name": "_projectTax",
          "type": "uint256"
        }
      ],
      "stateMutability": "nonpayable",
      "type": "constructor"
    },
    {
      "anonymous": false,
      "inputs": [
        {
          "indexed": false,
          "internalType": "uint256",
          "name": "id",
          "type": "uint256"
        },
        {
          "indexed": false,
          "internalType": "string",
          "name": "actionType",
          "type": "string"
        },
        {
          "indexed": true,
          "internalType": "address",
          "name": "executor",
          "type": "address"
        },
        {
          "indexed": false,
          "internalType": "uint256",
          "name": "timestamp",
          "type": "uint256"
        }
      ],
      "name": "Action",
      "type": "event"
    },
    {
      "anonymous": false,
      "inputs": [
        {
          "indexed": false,
          "internalType": "uint256",
          "name": "id",
          "type": "uint256"
        },
        {
          "indexed": false,
          "internalType": "string",
          "name": "title",
          "type": "string"
        },
        {
          "indexed": false,
          "internalType": "address",
          "name": "owner",
          "type": "address"
        },
        {
          "indexed": false,
          "internalType": "string",
          "name": "actionType",
          "type": "string"
        },
        {
          "indexed": false,
          "internalType": "uint256",
          "name": "timestamp",
          "type": "uint256"
        }
      ],
      "name": "ProjectCreated",
      "type": "event"
    },
    {
      "inputs": [
        {
          "internalType": "uint256",
          "name": "id",
          "type": "uint256"
        }
      ],
      "name": "backProject",
      "outputs": [
        {
          "internalType": "bool",
          "name": "",
          "type": "bool"
        }
      ],
      "stateMutability": "payable",
      "type": "function"
    },
    {
      "inputs": [],
      "name": "balance",
      "outputs": [
        {
          "internalType": "uint256",
          "name": "",
          "type": "uint256"
        }
      ],
      "stateMutability": "view",
      "type": "function"
    },
    {
      "inputs": [
        {
          "internalType": "uint256",
          "name": "_taxPct",
          "type": "uint256"
        }
      ],
      "name": "changeTax",
      "outputs": [],
      "stateMutability": "nonpayable",
      "type": "function"
    },
    {
      "inputs": [
        {
          "internalType": "string",
          "name": "title",
          "type": "string"
        },
        {
          "internalType": "string",
          "name": "description",
          "type": "string"
        },
        {
          "internalType": "uint256",
          "name": "cost",
          "type": "uint256"
        },
        {
          "internalType": "uint256",
          "name": "expiresAt",
          "type": "uint256"
        },
        {
          "internalType": "string",
          "name": "uploadedImageCID",
          "type": "string"
        },
        {
          "internalType": "string",
          "name": "uploadedTTDimage",
          "type": "string"
        },
        {
          "internalType": "string",
          "name": "uploadedsyarat",
          "type": "string"
        }
      ],
      "name": "createProject",
      "outputs": [
        {
          "internalType": "bool",
          "name": "",
          "type": "bool"
        }
      ],
      "stateMutability": "nonpayable",
      "type": "function"
    },
    {
      "inputs": [
        {
          "internalType": "uint256",
          "name": "id",
          "type": "uint256"
        }
      ],
      "name": "deleteProject",
      "outputs": [
        {
          "internalType": "bool",
          "name": "",
          "type": "bool"
        }
      ],
      "stateMutability": "nonpayable",
      "type": "function"
    },
    {
      "inputs": [
        {
          "internalType": "uint256",
          "name": "id",
          "type": "uint256"
        }
      ],
      "name": "getBackers",
      "outputs": [
        {
          "components": [
            {
              "internalType": "address",
              "name": "owner",
              "type": "address"
            },
            {
              "internalType": "uint256",
              "name": "contribution",
              "type": "uint256"
            },
            {
              "internalType": "uint256",
              "name": "timestamp",
              "type": "uint256"
            },
            {
              "internalType": "bool",
              "name": "refunded",
              "type": "bool"
            }
          ],
          "internalType": "struct Genesis.backerStruct[]",
          "name": "",
          "type": "tuple[]"
        }
      ],
      "stateMutability": "view",
      "type": "function"
    },
    {
      "inputs": [
        {
          "internalType": "uint256",
          "name": "id",
          "type": "uint256"
        }
      ],
      "name": "getProject",
      "outputs": [
        {
          "components": [
            {
              "internalType": "uint256",
              "name": "id",
              "type": "uint256"
            },
            {
              "internalType": "address",
              "name": "owner",
              "type": "address"
            },
            {
              "internalType": "string",
              "name": "title",
              "type": "string"
            },
            {
              "internalType": "string",
              "name": "description",
              "type": "string"
            },
            {
              "internalType": "uint256",
              "name": "cost",
              "type": "uint256"
            },
            {
              "internalType": "uint256",
              "name": "expiresAt",
              "type": "uint256"
            },
            {
              "internalType": "string",
              "name": "uploadedImageCID",
              "type": "string"
            },
            {
              "internalType": "string",
              "name": "uploadedTTDimage",
              "type": "string"
            },
            {
              "internalType": "string",
              "name": "uploadedsyarat",
              "type": "string"
            },
            {
              "internalType": "uint256",
              "name": "raised",
              "type": "uint256"
            },
            {
              "internalType": "uint256",
              "name": "timestamp",
              "type": "uint256"
            },
            {
              "internalType": "uint256",
              "name": "backers",
              "type": "uint256"
            },
            {
              "internalType": "enum Genesis.statusEnum",
              "name": "status",
              "type": "uint8"
            }
          ],
          "internalType": "struct Genesis.projectStruct",
          "name": "",
          "type": "tuple"
        }
      ],
      "stateMutability": "view",
      "type": "function"
    },
    {
      "inputs": [],
      "name": "getProjects",
      "outputs": [
        {
          "components": [
            {
              "internalType": "uint256",
              "name": "id",
              "type": "uint256"
            },
            {
              "internalType": "address",
              "name": "owner",
              "type": "address"
            },
            {
              "internalType": "string",
              "name": "title",
              "type": "string"
            },
            {
              "internalType": "string",
              "name": "description",
              "type": "string"
            },
            {
              "internalType": "uint256",
              "name": "cost",
              "type": "uint256"
            },
            {
              "internalType": "uint256",
              "name": "expiresAt",
              "type": "uint256"
            },
            {
              "internalType": "string",
              "name": "uploadedImageCID",
              "type": "string"
            },
            {
              "internalType": "string",
              "name": "uploadedTTDimage",
              "type": "string"
            },
            {
              "internalType": "string",
              "name": "uploadedsyarat",
              "type": "string"
            },
            {
              "internalType": "uint256",
              "name": "raised",
              "type": "uint256"
            },
            {
              "internalType": "uint256",
              "name": "timestamp",
              "type": "uint256"
            },
            {
              "internalType": "uint256",
              "name": "backers",
              "type": "uint256"
            },
            {
              "internalType": "enum Genesis.statusEnum",
              "name": "status",
              "type": "uint8"
            }
          ],
          "internalType": "struct Genesis.projectStruct[]",
          "name": "",
          "type": "tuple[]"
        }
      ],
      "stateMutability": "view",
      "type": "function"
    },
    {
      "inputs": [],
      "name": "owner",
      "outputs": [
        {
          "internalType": "address",
          "name": "",
          "type": "address"
        }
      ],
      "stateMutability": "view",
      "type": "function"
    },
    {
      "inputs": [
        {
          "internalType": "uint256",
          "name": "id",
          "type": "uint256"
        }
      ],
      "name": "payOutProject",
      "outputs": [
        {
          "internalType": "bool",
          "name": "",
          "type": "bool"
        }
      ],
      "stateMutability": "nonpayable",
      "type": "function"
    },
    {
      "inputs": [],
      "name": "projectCount",
      "outputs": [
        {
          "internalType": "uint256",
          "name": "",
          "type": "uint256"
        }
      ],
      "stateMutability": "view",
      "type": "function"
    },
    {
      "inputs": [
        {
          "internalType": "uint256",
          "name": "",
          "type": "uint256"
        }
      ],
      "name": "projectExist",
      "outputs": [
        {
          "internalType": "bool",
          "name": "",
          "type": "bool"
        }
      ],
      "stateMutability": "view",
      "type": "function"
    },
    {
      "inputs": [],
      "name": "projectTax",
      "outputs": [
        {
          "internalType": "uint256",
          "name": "",
          "type": "uint256"
        }
      ],
      "stateMutability": "view",
      "type": "function"
    },
    {
      "inputs": [
        {
          "internalType": "uint256",
          "name": "id",
          "type": "uint256"
        }
      ],
      "name": "requestRefund",
      "outputs": [
        {
          "internalType": "bool",
          "name": "",
          "type": "bool"
        }
      ],
      "stateMutability": "nonpayable",
      "type": "function"
    },
    {
      "inputs": [],
      "name": "stats",
      "outputs": [
        {
          "internalType": "uint256",
          "name": "totalProjects",
          "type": "uint256"
        },
        {
          "internalType": "uint256",
          "name": "totalBacking",
          "type": "uint256"
        },
        {
          "internalType": "uint256",
          "name": "totalDonations",
          "type": "uint256"
        }
      ],
      "stateMutability": "view",
      "type": "function"
    },
    {
      "inputs": [
        {
          "internalType": "uint256",
          "name": "id",
          "type": "uint256"
        },
        {
          "internalType": "string",
          "name": "title",
          "type": "string"
        },
        {
          "internalType": "string",
          "name": "description",
          "type": "string"
        },
        {
          "internalType": "string",
          "name": "uploadedImageCID",
          "type": "string"
        },
        {
          "internalType": "string",
          "name": "uploadedTTDimage",
          "type": "string"
        },
        {
          "internalType": "string",
          "name": "uploadedsyarat",
          "type": "string"
        },
        {
          "internalType": "uint256",
          "name": "expiresAt",
          "type": "uint256"
        }
      ],
      "name": "updateProject",
      "outputs": [
        {
          "internalType": "bool",
          "name": "",
          "type": "bool"
        }
      ],
      "stateMutability": "nonpayable",
      "type": "function"
    }
  ],
  "bytecode": "0x608060405234801561001057600080fd5b50604051620027be380380620027be8339810160408190526100319161004b565b600080546001600160a01b03191633179055600155610064565b60006020828403121561005d57600080fd5b5051919050565b61274a80620000746000396000f3fe6080604052600436106100f35760003560e01c8063b500b1a01161008a578063d24cd3ec11610059578063d24cd3ec146102b1578063d80528ae146102c7578063dcc6012814610301578063f0f3f2c81461032357600080fd5b8063b500b1a01461022e578063b531dcba1461024e578063b69ef8a81461026e578063c9168b721461028457600080fd5b80638904e162116100c65780638904e162146101a35780638da5cb5b146101c35780639f39a194146101fb578063a4b2409e1461020e57600080fd5b806336fbad26146100f85780633e45c8af146101215780634cd0cb28146101435780638593054b14610173575b600080fd5b34801561010457600080fd5b5061010e60025481565b6040519081526020015b60405180910390f35b34801561012d57600080fd5b5061014161013c3660046120e2565b610350565b005b34801561014f57600080fd5b5061016361015e3660046120e2565b6103aa565b6040519015158152602001610118565b34801561017f57600080fd5b5061016361018e3660046120e2565b600a6020526000908152604090205460ff1681565b3480156101af57600080fd5b506101636101be36600461219e565b610526565b3480156101cf57600080fd5b506000546101e3906001600160a01b031681565b6040516001600160a01b039091168152602001610118565b6101636102093660046120e2565b610aaa565b34801561021a57600080fd5b506101636102293660046120e2565b610eb7565b34801561023a57600080fd5b50610163610249366004612283565b610fae565b34801561025a57600080fd5b506101636102693660046120e2565b61132a565b34801561027a57600080fd5b5061010e60035481565b34801561029057600080fd5b506102a461029f3660046120e2565b611419565b6040516101189190612368565b3480156102bd57600080fd5b5061010e60015481565b3480156102d357600080fd5b506004546005546006546102e692919083565b60408051938452602084019290925290820152606001610118565b34801561030d57600080fd5b506103166114bb565b6040516101189190612559565b34801561032f57600080fd5b5061034361033e3660046120e2565b61187a565b60405161011891906125bb565b6000546001600160a01b031633146103a55760405162461bcd60e51b81526020600482015260136024820152724f776e6572207265736572766564206f6e6c7960681b60448201526064015b60405180910390fd5b600155565b600080600783815481106103c0576103c06125d5565b60009182526020909120600c600d90920201015460ff1660048111156103e8576103e8612424565b146104305760405162461bcd60e51b8152602060048201526018602482015277141c9bda9958dd081b9bc81b1bdb99d95c881bdc195b995960421b604482015260640161039c565b60078281548110610443576104436125d5565b60009182526020909120600d90910201600101546001600160a01b0316331461047e5760405162461bcd60e51b815260040161039c906125eb565b600360078381548110610493576104936125d5565b60009182526020909120600c600d9092020101805460ff191660018360048111156104c0576104c0612424565b02179055506104ce82611c7e565b60408051838152606060208201819052600f908201526e141493d29150d50811115311551151608a1b60808201524281830152905133916000805160206126f5833981519152919081900360a00190a2506001919050565b6000808851116105705760405162461bcd60e51b81526020600482015260156024820152745469746c652063616e6e6f7420626520656d70747960581b604482015260640161039c565b60008751116105c15760405162461bcd60e51b815260206004820152601b60248201527f4465736372697074696f6e2063616e6e6f7420626520656d7074790000000000604482015260640161039c565b60008451116106125760405162461bcd60e51b815260206004820152601a60248201527f496d61676520697066732063616e6e6f7420626520656d707479000000000000604482015260640161039c565b600083511161065e5760405162461bcd60e51b815260206004820152601860248201527754544420697066732063616e6e6f7420626520656d70747960401b604482015260640161039c565b60008251116106af5760405162461bcd60e51b815260206004820152601b60248201527f73796172617420697066732063616e6e6f7420626520656d7074790000000000604482015260640161039c565b600086116106f55760405162461bcd60e51b8152602060048201526013602482015272436f73742063616e6e6f74206265207a65726f60681b604482015260640161039c565b6106fd611fc8565b6002548152336020808301918252604083018b8152606084018b905260c0840188905260e0840187905261010084018690524261014085015260a084018990526007805460018101825560009190915284517fa66cc928b5edb82af9bd49922954155ab7b0942694bea4ce44661d9a8736c688600d90920291820190815593517fa66cc928b5edb82af9bd49922954155ab7b0942694bea4ce44661d9a8736c689820180546001600160a01b0319166001600160a01b03909216919091179055905180518594936107f2937fa66cc928b5edb82af9bd49922954155ab7b0942694bea4ce44661d9a8736c68a01920190612049565b506060820151805161080e916003840191602090910190612049565b506080820151600482015560a0820151600582015560c0820151805161083e916006840191602090910190612049565b5060e0820151805161085a916007840191602090910190612049565b506101008201518051610877916008840191602090910190612049565b506101208201516009820155610140820151600a820155610160820151600b820155610180820151600c8201805460ff191660018360048111156108bd576108bd612424565b021790555050600280546000908152600a602090815260408083208054600160ff1990911681179091553384526008835281842080548083018255908552938390208751600d909502019384558683015190840180546001600160a01b0319166001600160a01b039092169190911790558501518051869550929361094a93908501929190910190612049565b5060608201518051610966916003840191602090910190612049565b506080820151600482015560a0820151600582015560c08201518051610996916006840191602090910190612049565b5060e082015180516109b2916007840191602090910190612049565b5061010082015180516109cf916008840191602090910190612049565b506101208201516009820155610140820151600a820155610160820151600b820155610180820151600c8201805460ff19166001836004811115610a1557610a15612424565b02179055505050600160046000016000828254610a32919061262e565b90915550506002805433916000805160206126f583398151915291906000610a5983612646565b9091555060408051918252606060208301819052600f908301526e141493d29150d50810d49150551151608a1b6080830152429082015260a00160405180910390a250600198975050505050505050565b6000803411610afb5760405162461bcd60e51b815260206004820152601f60248201527f4574686572206d7573742062652067726561746572207468616e207a65726f00604482015260640161039c565b6000828152600a602052604090205460ff16610b4d5760405162461bcd60e51b8152602060048201526011602482015270141c9bda9958dd081b9bdd08199bdd5b99607a1b604482015260640161039c565b600060078381548110610b6257610b626125d5565b60009182526020909120600c600d90920201015460ff166004811115610b8a57610b8a612424565b14610bd25760405162461bcd60e51b8152602060048201526018602482015277141c9bda9958dd081b9bc81b1bdb99d95c881bdc195b995960421b604482015260640161039c565b600160046001016000828254610be8919061262e565b909155505060068054349190600090610c0290849061262e565b925050819055503460078381548110610c1d57610c1d6125d5565b90600052602060002090600d02016009016000828254610c3d919061262e565b92505081905550600160078381548110610c5957610c596125d5565b90600052602060002090600d0201600b016000828254610c79919061262e565b9091555050600082815260096020908152604080832081516080808201845233808352348387019081524284870181815260608087018b8152885460018082018b55998d529b8b902097516004909c0290970180546001600160a01b0319166001600160a01b03909c169b909b178b559251968a01969096559451600289015592516003909701805460ff1916971515979097179096558351888152948501829052600e918501919091526d141493d29150d508109050d2d15160921b90840152908201526000805160206126f58339815191529060a00160405180910390a260078281548110610d6c57610d6c6125d5565b90600052602060002090600d02016004015460078381548110610d9157610d916125d5565b90600052602060002090600d02016009015410610e3c57600160078381548110610dbd57610dbd6125d5565b60009182526020909120600c600d9092020101805460ff19166001836004811115610dea57610dea612424565b021790555060078281548110610e0257610e026125d5565b90600052602060002090600d02016009015460036000828254610e25919061262e565b90915550610e34905082611dec565b506001919050565b60078281548110610e4f57610e4f6125d5565b90600052602060002090600d0201600501544210610e3457600260078381548110610e7c57610e7c6125d5565b60009182526020909120600c600d9092020101805460ff19166001836004811115610ea957610ea9612424565b0217905550610e3482611c7e565b6000600260078381548110610ece57610ece6125d5565b60009182526020909120600c600d90920201015460ff166004811115610ef657610ef6612424565b141580610f3e5750600360078381548110610f1357610f136125d5565b60009182526020909120600c600d90920201015460ff166004811115610f3b57610f3b612424565b14155b610f995760405162461bcd60e51b815260206004820152602660248201527f50726f6a656374206e6f74206d61726b656420617320726576657274206f722060448201526564656c65746560d01b606482015260840161039c565b600260078381548110610e7c57610e7c6125d5565b600060078881548110610fc357610fc36125d5565b60009182526020909120600d90910201600101546001600160a01b03163314610ffe5760405162461bcd60e51b815260040161039c906125eb565b60008751116110475760405162461bcd60e51b81526020600482015260156024820152745469746c652063616e6e6f7420626520656d70747960581b604482015260640161039c565b60008651116110985760405162461bcd60e51b815260206004820152601b60248201527f4465736372697074696f6e2063616e6e6f7420626520656d7074790000000000604482015260640161039c565b60008551116110e95760405162461bcd60e51b815260206004820152601a60248201527f496d61676520697066732063616e6e6f7420626520656d707479000000000000604482015260640161039c565b60008451116111355760405162461bcd60e51b815260206004820152601860248201527754544420697066732063616e6e6f7420626520656d70747960401b604482015260640161039c565b60008351116111865760405162461bcd60e51b815260206004820152601b60248201527f73796172617420697066732063616e6e6f7420626520656d7074790000000000604482015260640161039c565b866007898154811061119a5761119a6125d5565b90600052602060002090600d020160020190805190602001906111be929190612049565b5085600789815481106111d3576111d36125d5565b90600052602060002090600d020160030190805190602001906111f7929190612049565b50816007898154811061120c5761120c6125d5565b90600052602060002090600d0201600501819055508460078981548110611235576112356125d5565b90600052602060002090600d02016006019080519060200190611259929190612049565b50836007898154811061126e5761126e6125d5565b90600052602060002090600d02016007019080519060200190611292929190612049565b5082600789815481106112a7576112a76125d5565b90600052602060002090600d020160080190805190602001906112cb929190612049565b5060408051898152606060208201819052600f908201526e141493d29150d50815541110551151608a1b60808201524281830152905133916000805160206126f5833981519152919081900360a00190a2506001979650505050505050565b6000600160078381548110611341576113416125d5565b60009182526020909120600c600d90920201015460ff16600481111561136957611369612424565b146113ad5760405162461bcd60e51b8152602060048201526014602482015273141c9bda9958dd081b9bdd081054141493d5915160621b604482015260640161039c565b600782815481106113c0576113c06125d5565b60009182526020909120600d90910201600101546001600160a01b03163314806113f457506000546001600160a01b031633145b6114105760405162461bcd60e51b815260040161039c906125eb565b610e3482611dec565b606060096000838152602001908152602001600020805480602002602001604051908101604052809291908181526020016000905b828210156114b0576000848152602090819020604080516080810182526004860290920180546001600160a01b03168352600180820154848601526002820154928401929092526003015460ff1615156060830152908352909201910161144e565b505050509050919050565b60606007805480602002602001604051908101604052809291908181526020016000905b82821015611871576000848152602090819020604080516101a081018252600d86029092018054835260018101546001600160a01b0316938301939093526002830180549293929184019161153390612661565b80601f016020809104026020016040519081016040528092919081815260200182805461155f90612661565b80156115ac5780601f10611581576101008083540402835291602001916115ac565b820191906000526020600020905b81548152906001019060200180831161158f57829003601f168201915b505050505081526020016003820180546115c590612661565b80601f01602080910402602001604051908101604052809291908181526020018280546115f190612661565b801561163e5780601f106116135761010080835404028352916020019161163e565b820191906000526020600020905b81548152906001019060200180831161162157829003601f168201915b50505050508152602001600482015481526020016005820154815260200160068201805461166b90612661565b80601f016020809104026020016040519081016040528092919081815260200182805461169790612661565b80156116e45780601f106116b9576101008083540402835291602001916116e4565b820191906000526020600020905b8154815290600101906020018083116116c757829003601f168201915b505050505081526020016007820180546116fd90612661565b80601f016020809104026020016040519081016040528092919081815260200182805461172990612661565b80156117765780601f1061174b57610100808354040283529160200191611776565b820191906000526020600020905b81548152906001019060200180831161175957829003601f168201915b5050505050815260200160088201805461178f90612661565b80601f01602080910402602001604051908101604052809291908181526020018280546117bb90612661565b80156118085780601f106117dd57610100808354040283529160200191611808565b820191906000526020600020905b8154815290600101906020018083116117eb57829003601f168201915b505050918352505060098201546020820152600a8201546040820152600b8201546060820152600c82015460809091019060ff16600481111561184d5761184d612424565b600481111561185e5761185e612424565b81525050815260200190600101906114df565b50505050905090565b611882611fc8565b6000828152600a602052604090205460ff166118d45760405162461bcd60e51b8152602060048201526011602482015270141c9bda9958dd081b9bdd08199bdd5b99607a1b604482015260640161039c565b600782815481106118e7576118e76125d5565b90600052602060002090600d0201604051806101a0016040529081600082015481526020016001820160009054906101000a90046001600160a01b03166001600160a01b03166001600160a01b0316815260200160028201805461194a90612661565b80601f016020809104026020016040519081016040528092919081815260200182805461197690612661565b80156119c35780601f10611998576101008083540402835291602001916119c3565b820191906000526020600020905b8154815290600101906020018083116119a657829003601f168201915b505050505081526020016003820180546119dc90612661565b80601f0160208091040260200160405190810160405280929190818152602001828054611a0890612661565b8015611a555780601f10611a2a57610100808354040283529160200191611a55565b820191906000526020600020905b815481529060010190602001808311611a3857829003601f168201915b505050505081526020016004820154815260200160058201548152602001600682018054611a8290612661565b80601f0160208091040260200160405190810160405280929190818152602001828054611aae90612661565b8015611afb5780601f10611ad057610100808354040283529160200191611afb565b820191906000526020600020905b815481529060010190602001808311611ade57829003601f168201915b50505050508152602001600782018054611b1490612661565b80601f0160208091040260200160405190810160405280929190818152602001828054611b4090612661565b8015611b8d5780601f10611b6257610100808354040283529160200191611b8d565b820191906000526020600020905b815481529060010190602001808311611b7057829003601f168201915b50505050508152602001600882018054611ba690612661565b80601f0160208091040260200160405190810160405280929190818152602001828054611bd290612661565b8015611c1f5780601f10611bf457610100808354040283529160200191611c1f565b820191906000526020600020905b815481529060010190602001808311611c0257829003601f168201915b505050918352505060098201546020820152600a8201546040820152600b8201546060820152600c82015460809091019060ff166004811115611c6457611c64612424565b6004811115611c7557611c75612424565b90525092915050565b60005b600082815260096020526040902054811015611de8576000828152600960205260408120805483908110611cb757611cb76125d5565b6000918252602080832060049092029091015485835260099091526040822080546001600160a01b0390921693509084908110611cf657611cf66125d5565b90600052602060002090600402016001015490506001600960008681526020019081526020016000208481548110611d3057611d306125d5565b906000526020600020906004020160030160006101000a81548160ff02191690831515021790555042600960008681526020019081526020016000208481548110611d7d57611d7d6125d5565b906000526020600020906004020160020181905550611d9c8282611f63565b600160046001016000828254611db2919061269c565b909155505060068054829190600090611dcc90849061269c565b9250508190555050508080611de090612646565b915050611c81565b5050565b600060078281548110611e0157611e016125d5565b90600052602060002090600d02016009015490506000606460015483611e2791906126b3565b611e3191906126d2565b9050600460078481548110611e4857611e486125d5565b60009182526020909120600c600d9092020101805460ff19166001836004811115611e7557611e75612424565b0217905550611ebc60078481548110611e9057611e906125d5565b600091825260209091206001600d9092020101546001600160a01b0316611eb7838561269c565b611f63565b600054611ed2906001600160a01b031682611f63565b60078381548110611ee557611ee56125d5565b90600052602060002090600d02016009015460036000828254611f08919061269c565b9091555050604080518481526060602082018190526010908201526f141493d29150d508141052510813d55560821b60808201524281830152905133916000805160206126f5833981519152919081900360a00190a2505050565b6000826001600160a01b03168260405160006040518083038185875af1925050503d8060008114611fb0576040519150601f19603f3d011682016040523d82523d6000602084013e611fb5565b606091505b5050905080611fc357600080fd5b505050565b604051806101a001604052806000815260200160006001600160a01b03168152602001606081526020016060815260200160008152602001600081526020016060815260200160608152602001606081526020016000815260200160008152602001600081526020016000600481111561204457612044612424565b905290565b82805461205590612661565b90600052602060002090601f01602090048101928261207757600085556120bd565b82601f1061209057805160ff19168380011785556120bd565b828001600101855582156120bd579182015b828111156120bd5782518255916020019190600101906120a2565b506120c99291506120cd565b5090565b5b808211156120c957600081556001016120ce565b6000602082840312156120f457600080fd5b5035919050565b634e487b7160e01b600052604160045260246000fd5b600082601f83011261212257600080fd5b813567ffffffffffffffff8082111561213d5761213d6120fb565b604051601f8301601f19908116603f01168101908282118183101715612165576121656120fb565b8160405283815286602085880101111561217e57600080fd5b836020870160208301376000602085830101528094505050505092915050565b600080600080600080600060e0888a0312156121b957600080fd5b873567ffffffffffffffff808211156121d157600080fd5b6121dd8b838c01612111565b985060208a01359150808211156121f357600080fd5b6121ff8b838c01612111565b975060408a0135965060608a0135955060808a013591508082111561222357600080fd5b61222f8b838c01612111565b945060a08a013591508082111561224557600080fd5b6122518b838c01612111565b935060c08a013591508082111561226757600080fd5b506122748a828b01612111565b91505092959891949750929550565b600080600080600080600060e0888a03121561229e57600080fd5b87359650602088013567ffffffffffffffff808211156122bd57600080fd5b6122c98b838c01612111565b975060408a01359150808211156122df57600080fd5b6122eb8b838c01612111565b965060608a013591508082111561230157600080fd5b61230d8b838c01612111565b955060808a013591508082111561232357600080fd5b61232f8b838c01612111565b945060a08a013591508082111561234557600080fd5b506123528a828b01612111565b92505060c0880135905092959891949750929550565b602080825282518282018190526000919060409081850190868401855b828110156123ca57815180516001600160a01b031685528681015187860152858101518686015260609081015115159085015260809093019290850190600101612385565b5091979650505050505050565b6000815180845260005b818110156123fd576020818501810151868301820152016123e1565b8181111561240f576000602083870101525b50601f01601f19169290920160200192915050565b634e487b7160e01b600052602160045260246000fd5b6005811061245857634e487b7160e01b600052602160045260246000fd5b9052565b60006101a082518452602083015161247f60208601826001600160a01b03169052565b506040830151816040860152612497828601826123d7565b915050606083015184820360608601526124b182826123d7565b9150506080830151608085015260a083015160a085015260c083015184820360c08601526124df82826123d7565b91505060e083015184820360e08601526124f982826123d7565b915050610100808401518583038287015261251483826123d7565b925050506101208084015181860152506101408084015181860152506101608084015181860152506101808084015161254f8287018261243a565b5090949350505050565b6000602080830181845280855180835260408601915060408160051b870101925083870160005b828110156125ae57603f1988860301845261259c85835161245c565b94509285019290850190600101612580565b5092979650505050505050565b6020815260006125ce602083018461245c565b9392505050565b634e487b7160e01b600052603260045260246000fd5b602080825260139082015272556e617574686f72697a656420456e7469747960681b604082015260600190565b634e487b7160e01b600052601160045260246000fd5b6000821982111561264157612641612618565b500190565b600060001982141561265a5761265a612618565b5060010190565b600181811c9082168061267557607f821691505b6020821081141561269657634e487b7160e01b600052602260045260246000fd5b50919050565b6000828210156126ae576126ae612618565b500390565b60008160001904831182151516156126cd576126cd612618565b500290565b6000826126ef57634e487b7160e01b600052601260045260246000fd5b50049056feaee8e5d3bbb2f71a951b5632cee20f7ac487b9f8ab4f66a236f7694b13af7c6aa26469706673582212209983ff4ea3adf7e39e28b056ddb2a115e77d46e8c87ec5a4e06991f7e3fa0ba264736f6c634300080b0033",
  "linkReferences": {},
  "deployedLinkReferences": {}
}